{
  "contractName": "Fundraiser",
  "abi": [
    {
      "inputs": [
        {
          "internalType": "string",
          "name": "_name",
          "type": "string"
        },
        {
          "internalType": "string",
          "name": "_url",
          "type": "string"
        },
        {
          "internalType": "string",
          "name": "_imageURL",
          "type": "string"
        },
        {
          "internalType": "string",
          "name": "_description",
          "type": "string"
        },
        {
          "internalType": "address payable",
          "name": "_beneficiary",
          "type": "address"
        },
        {
          "internalType": "address",
          "name": "_owner",
          "type": "address"
        }
      ],
      "stateMutability": "nonpayable",
      "type": "constructor"
    },
    {
      "anonymous": false,
      "inputs": [
        {
          "indexed": true,
          "internalType": "address",
          "name": "donor",
          "type": "address"
        },
        {
          "indexed": false,
          "internalType": "uint256",
          "name": "value",
          "type": "uint256"
        }
      ],
      "name": "DonationReceived",
      "type": "event"
    },
    {
      "anonymous": false,
      "inputs": [
        {
          "indexed": true,
          "internalType": "address",
          "name": "previousOwner",
          "type": "address"
        },
        {
          "indexed": true,
          "internalType": "address",
          "name": "newOwner",
          "type": "address"
        }
      ],
      "name": "OwnershipTransferred",
      "type": "event"
    },
    {
      "anonymous": false,
      "inputs": [
        {
          "indexed": false,
          "internalType": "uint256",
          "name": "amount",
          "type": "uint256"
        }
      ],
      "name": "Withdraw",
      "type": "event"
    },
    {
      "inputs": [],
      "name": "beneficiary",
      "outputs": [
        {
          "internalType": "address payable",
          "name": "",
          "type": "address"
        }
      ],
      "stateMutability": "view",
      "type": "function"
    },
    {
      "inputs": [],
      "name": "description",
      "outputs": [
        {
          "internalType": "string",
          "name": "",
          "type": "string"
        }
      ],
      "stateMutability": "view",
      "type": "function"
    },
    {
      "inputs": [],
      "name": "donationsCount",
      "outputs": [
        {
          "internalType": "uint256",
          "name": "",
          "type": "uint256"
        }
      ],
      "stateMutability": "view",
      "type": "function"
    },
    {
      "inputs": [],
      "name": "imageURL",
      "outputs": [
        {
          "internalType": "string",
          "name": "",
          "type": "string"
        }
      ],
      "stateMutability": "view",
      "type": "function"
    },
    {
      "inputs": [],
      "name": "name",
      "outputs": [
        {
          "internalType": "string",
          "name": "",
          "type": "string"
        }
      ],
      "stateMutability": "view",
      "type": "function"
    },
    {
      "inputs": [],
      "name": "owner",
      "outputs": [
        {
          "internalType": "address",
          "name": "",
          "type": "address"
        }
      ],
      "stateMutability": "view",
      "type": "function"
    },
    {
      "inputs": [],
      "name": "renounceOwnership",
      "outputs": [],
      "stateMutability": "nonpayable",
      "type": "function"
    },
    {
      "inputs": [],
      "name": "totalDonations",
      "outputs": [
        {
          "internalType": "uint256",
          "name": "",
          "type": "uint256"
        }
      ],
      "stateMutability": "view",
      "type": "function"
    },
    {
      "inputs": [
        {
          "internalType": "address",
          "name": "newOwner",
          "type": "address"
        }
      ],
      "name": "transferOwnership",
      "outputs": [],
      "stateMutability": "nonpayable",
      "type": "function"
    },
    {
      "inputs": [],
      "name": "url",
      "outputs": [
        {
          "internalType": "string",
          "name": "",
          "type": "string"
        }
      ],
      "stateMutability": "view",
      "type": "function"
    },
    {
      "inputs": [
        {
          "internalType": "address payable",
          "name": "_beneficiary",
          "type": "address"
        }
      ],
      "name": "setBeneficiary",
      "outputs": [],
      "stateMutability": "nonpayable",
      "type": "function"
    },
    {
      "inputs": [],
      "name": "myDonationsCount",
      "outputs": [
        {
          "internalType": "uint256",
          "name": "",
          "type": "uint256"
        }
      ],
      "stateMutability": "view",
      "type": "function"
    },
    {
      "inputs": [],
      "name": "donate",
      "outputs": [],
      "stateMutability": "payable",
      "type": "function"
    },
    {
      "inputs": [],
      "name": "myDonations",
      "outputs": [
        {
          "internalType": "uint256[]",
          "name": "values",
          "type": "uint256[]"
        },
        {
          "internalType": "uint256[]",
          "name": "dates",
          "type": "uint256[]"
        }
      ],
      "stateMutability": "view",
      "type": "function"
    },
    {
      "inputs": [],
      "name": "withdraw",
      "outputs": [],
      "stateMutability": "nonpayable",
      "type": "function"
    }
  ],
  "bytecode": "0x60806040523480156200001157600080fd5b5060405162001a1238038062001a12833981810160405260c08110156200003757600080fd5b81019080805160405193929190846401000000008211156200005857600080fd5b838201915060208201858111156200006f57600080fd5b82518660018202830111640100000000821117156200008d57600080fd5b8083526020830192505050908051906020019080838360005b83811015620000c3578082015181840152602081019050620000a6565b50505050905090810190601f168015620000f15780820380516001836020036101000a031916815260200191505b50604052602001805160405193929190846401000000008211156200011557600080fd5b838201915060208201858111156200012c57600080fd5b82518660018202830111640100000000821117156200014a57600080fd5b8083526020830192505050908051906020019080838360005b838110156200018057808201518184015260208101905062000163565b50505050905090810190601f168015620001ae5780820380516001836020036101000a031916815260200191505b5060405260200180516040519392919084640100000000821115620001d257600080fd5b83820191506020820185811115620001e957600080fd5b82518660018202830111640100000000821117156200020757600080fd5b8083526020830192505050908051906020019080838360005b838110156200023d57808201518184015260208101905062000220565b50505050905090810190601f1680156200026b5780820380516001836020036101000a031916815260200191505b50604052602001805160405193929190846401000000008211156200028f57600080fd5b83820191506020820185811115620002a657600080fd5b8251866001820283011164010000000082111715620002c457600080fd5b8083526020830192505050908051906020019080838360005b83811015620002fa578082015181840152602081019050620002dd565b50505050905090810190601f168015620003285780820380516001836020036101000a031916815260200191505b506040526020018051906020019092919080519060200190929190505050600062000358620004b860201b60201c565b9050806000806101000a81548173ffffffffffffffffffffffffffffffffffffffff021916908373ffffffffffffffffffffffffffffffffffffffff1602179055508073ffffffffffffffffffffffffffffffffffffffff16600073ffffffffffffffffffffffffffffffffffffffff167f8be0079c531659141344cd1fd0a4f28419497f9722a3daafe3b4186f6b6457e060405160405180910390a35085600490805190602001906200040e929190620006d6565b50846005908051906020019062000427929190620006d6565b50836006908051906020019062000440929190620006d6565b50826007908051906020019062000459929190620006d6565b5081600860006101000a81548173ffffffffffffffffffffffffffffffffffffffff021916908373ffffffffffffffffffffffffffffffffffffffff160217905550620004ac81620004c060201b60201c565b5050505050506200077c565b600033905090565b620004d0620004b860201b60201c565b73ffffffffffffffffffffffffffffffffffffffff1660008054906101000a900473ffffffffffffffffffffffffffffffffffffffff1673ffffffffffffffffffffffffffffffffffffffff161462000591576040517f08c379a00000000000000000000000000000000000000000000000000000000081526004018080602001828103825260208152602001807f4f776e61626c653a2063616c6c6572206973206e6f7420746865206f776e657281525060200191505060405180910390fd5b600073ffffffffffffffffffffffffffffffffffffffff168173ffffffffffffffffffffffffffffffffffffffff16141562000619576040517f08c379a0000000000000000000000000000000000000000000000000000000008152600401808060200182810382526026815260200180620019ec6026913960400191505060405180910390fd5b8073ffffffffffffffffffffffffffffffffffffffff1660008054906101000a900473ffffffffffffffffffffffffffffffffffffffff1673ffffffffffffffffffffffffffffffffffffffff167f8be0079c531659141344cd1fd0a4f28419497f9722a3daafe3b4186f6b6457e060405160405180910390a3806000806101000a81548173ffffffffffffffffffffffffffffffffffffffff021916908373ffffffffffffffffffffffffffffffffffffffff16021790555050565b828054600181600116156101000203166002900490600052602060002090601f016020900481019282601f106200071957805160ff19168380011785556200074a565b828001600101855582156200074a579182015b82811115620007495782518255916020019190600101906200072c565b5b5090506200075991906200075d565b5090565b5b80821115620007785760008160009055506001016200075e565b5090565b611260806200078c6000396000f3fe6080604052600436106100e85760003560e01c80635600f04f1161008a578063b90497e011610059578063b90497e0146104a8578063de2ed89314610538578063ed88c68e14610563578063f2fde38b1461056d576100e8565b80635600f04f14610330578063715018a6146103c05780637284e416146103d75780638da5cb5b14610467576100e8565b80631c31f710116100c65780631c31f7101461025c5780631f522595146102ad57806338af3eed146102d85780633ccfd60b14610319576100e8565b80630180b97c146100ed57806306fdde03146101185780631a57f7b4146101a8575b600080fd5b3480156100f957600080fd5b506101026105be565b6040518082815260200191505060405180910390f35b34801561012457600080fd5b5061012d610608565b6040518080602001828103825283818151815260200191508051906020019080838360005b8381101561016d578082015181840152602081019050610152565b50505050905090810190601f16801561019a5780820380516001836020036101000a031916815260200191505b509250505060405180910390f35b3480156101b457600080fd5b506101bd6106a6565b604051808060200180602001838103835285818151815260200191508051906020019060200280838360005b838110156102045780820151818401526020810190506101e9565b50505050905001838103825284818151815260200191508051906020019060200280838360005b8381101561024657808201518184015260208101905061022b565b5050505090500194505050505060405180910390f35b34801561026857600080fd5b506102ab6004803603602081101561027f57600080fd5b81019080803573ffffffffffffffffffffffffffffffffffffffff1690602001909291905050506107fc565b005b3480156102b957600080fd5b506102c2610908565b6040518082815260200191505060405180910390f35b3480156102e457600080fd5b506102ed61090e565b604051808273ffffffffffffffffffffffffffffffffffffffff16815260200191505060405180910390f35b34801561032557600080fd5b5061032e610934565b005b34801561033c57600080fd5b50610345610aa4565b6040518080602001828103825283818151815260200191508051906020019080838360005b8381101561038557808201518184015260208101905061036a565b50505050905090810190601f1680156103b25780820380516001836020036101000a031916815260200191505b509250505060405180910390f35b3480156103cc57600080fd5b506103d5610b42565b005b3480156103e357600080fd5b506103ec610cc8565b6040518080602001828103825283818151815260200191508051906020019080838360005b8381101561042c578082015181840152602081019050610411565b50505050905090810190601f1680156104595780820380516001836020036101000a031916815260200191505b509250505060405180910390f35b34801561047357600080fd5b5061047c610d66565b604051808273ffffffffffffffffffffffffffffffffffffffff16815260200191505060405180910390f35b3480156104b457600080fd5b506104bd610d8f565b6040518080602001828103825283818151815260200191508051906020019080838360005b838110156104fd5780820151818401526020810190506104e2565b50505050905090810190601f16801561052a5780820380516001836020036101000a031916815260200191505b509250505060405180910390f35b34801561054457600080fd5b5061054d610e2d565b6040518082815260200191505060405180910390f35b61056b610e33565b005b34801561057957600080fd5b506105bc6004803603602081101561059057600080fd5b81019080803573ffffffffffffffffffffffffffffffffffffffff169060200190929190505050610f4f565b005b6000600360003373ffffffffffffffffffffffffffffffffffffffff1673ffffffffffffffffffffffffffffffffffffffff16815260200190815260200160002080549050905090565b60048054600181600116156101000203166002900480601f01602080910402602001604051908101604052809291908181526020018280546001816001161561010002031660029004801561069e5780601f106106735761010080835404028352916020019161069e565b820191906000526020600020905b81548152906001019060200180831161068157829003601f168201915b505050505081565b60608060006106b36105be565b90508067ffffffffffffffff811180156106cc57600080fd5b506040519080825280602002602001820160405280156106fb5781602001602082028036833780820191505090505b5092508067ffffffffffffffff8111801561071557600080fd5b506040519080825280602002602001820160405280156107445781602001602082028036833780820191505090505b50915060005b818110156107f6576000600360003373ffffffffffffffffffffffffffffffffffffffff1673ffffffffffffffffffffffffffffffffffffffff168152602001908152602001600020828154811061079e57fe5b9060005260206000209060020201905080600001548583815181106107bf57fe5b60200260200101818152505080600101548483815181106107dc57fe5b60200260200101818152505050808060010191505061074a565b50509091565b61080461115a565b73ffffffffffffffffffffffffffffffffffffffff1660008054906101000a900473ffffffffffffffffffffffffffffffffffffffff1673ffffffffffffffffffffffffffffffffffffffff16146108c4576040517f08c379a00000000000000000000000000000000000000000000000000000000081526004018080602001828103825260208152602001807f4f776e61626c653a2063616c6c6572206973206e6f7420746865206f776e657281525060200191505060405180910390fd5b80600860006101000a81548173ffffffffffffffffffffffffffffffffffffffff021916908373ffffffffffffffffffffffffffffffffffffffff16021790555050565b60025481565b600860009054906101000a900473ffffffffffffffffffffffffffffffffffffffff1681565b61093c61115a565b73ffffffffffffffffffffffffffffffffffffffff1660008054906101000a900473ffffffffffffffffffffffffffffffffffffffff1673ffffffffffffffffffffffffffffffffffffffff16146109fc576040517f08c379a00000000000000000000000000000000000000000000000000000000081526004018080602001828103825260208152602001807f4f776e61626c653a2063616c6c6572206973206e6f7420746865206f776e657281525060200191505060405180910390fd5b6000479050600860009054906101000a900473ffffffffffffffffffffffffffffffffffffffff1673ffffffffffffffffffffffffffffffffffffffff166108fc829081150290604051600060405180830381858888f19350505050158015610a69573d6000803e3d6000fd5b507f5b6b431d4476a211bb7d41c20d1aab9ae2321deee0d20be3d9fc9b1093fa6e3d816040518082815260200191505060405180910390a150565b60058054600181600116156101000203166002900480601f016020809104026020016040519081016040528092919081815260200182805460018160011615610100020316600290048015610b3a5780601f10610b0f57610100808354040283529160200191610b3a565b820191906000526020600020905b815481529060010190602001808311610b1d57829003601f168201915b505050505081565b610b4a61115a565b73ffffffffffffffffffffffffffffffffffffffff1660008054906101000a900473ffffffffffffffffffffffffffffffffffffffff1673ffffffffffffffffffffffffffffffffffffffff1614610c0a576040517f08c379a00000000000000000000000000000000000000000000000000000000081526004018080602001828103825260208152602001807f4f776e61626c653a2063616c6c6572206973206e6f7420746865206f776e657281525060200191505060405180910390fd5b600073ffffffffffffffffffffffffffffffffffffffff1660008054906101000a900473ffffffffffffffffffffffffffffffffffffffff1673ffffffffffffffffffffffffffffffffffffffff167f8be0079c531659141344cd1fd0a4f28419497f9722a3daafe3b4186f6b6457e060405160405180910390a360008060006101000a81548173ffffffffffffffffffffffffffffffffffffffff021916908373ffffffffffffffffffffffffffffffffffffffff160217905550565b60078054600181600116156101000203166002900480601f016020809104026020016040519081016040528092919081815260200182805460018160011615610100020316600290048015610d5e5780601f10610d3357610100808354040283529160200191610d5e565b820191906000526020600020905b815481529060010190602001808311610d4157829003601f168201915b505050505081565b60008060009054906101000a900473ffffffffffffffffffffffffffffffffffffffff16905090565b60068054600181600116156101000203166002900480601f016020809104026020016040519081016040528092919081815260200182805460018160011615610100020316600290048015610e255780601f10610dfa57610100808354040283529160200191610e25565b820191906000526020600020905b815481529060010190602001808311610e0857829003601f168201915b505050505081565b60015481565b610e3b6111ea565b6040518060400160405280348152602001428152509050600360003373ffffffffffffffffffffffffffffffffffffffff1673ffffffffffffffffffffffffffffffffffffffff16815260200190815260200160002081908060018154018082558091505060019003906000526020600020906002020160009091909190915060008201518160000155602082015181600101555050610ee63460015461116290919063ffffffff16565b6001819055506002600081548092919060010191905055503373ffffffffffffffffffffffffffffffffffffffff167f264f630d9efa0d07053a31163641d9fcc0adafc9d9e76f1c37c2ce3a558d2c52346040518082815260200191505060405180910390a250565b610f5761115a565b73ffffffffffffffffffffffffffffffffffffffff1660008054906101000a900473ffffffffffffffffffffffffffffffffffffffff1673ffffffffffffffffffffffffffffffffffffffff1614611017576040517f08c379a00000000000000000000000000000000000000000000000000000000081526004018080602001828103825260208152602001807f4f776e61626c653a2063616c6c6572206973206e6f7420746865206f776e657281525060200191505060405180910390fd5b600073ffffffffffffffffffffffffffffffffffffffff168173ffffffffffffffffffffffffffffffffffffffff16141561109d576040517f08c379a00000000000000000000000000000000000000000000000000000000081526004018080602001828103825260268152602001806112056026913960400191505060405180910390fd5b8073ffffffffffffffffffffffffffffffffffffffff1660008054906101000a900473ffffffffffffffffffffffffffffffffffffffff1673ffffffffffffffffffffffffffffffffffffffff167f8be0079c531659141344cd1fd0a4f28419497f9722a3daafe3b4186f6b6457e060405160405180910390a3806000806101000a81548173ffffffffffffffffffffffffffffffffffffffff021916908373ffffffffffffffffffffffffffffffffffffffff16021790555050565b600033905090565b6000808284019050838110156111e0576040517f08c379a000000000000000000000000000000000000000000000000000000000815260040180806020018281038252601b8152602001807f536166654d6174683a206164646974696f6e206f766572666c6f77000000000081525060200191505060405180910390fd5b8091505092915050565b60405180604001604052806000815260200160008152509056fe4f776e61626c653a206e6577206f776e657220697320746865207a65726f2061646472657373a26469706673582212204a5f4f624c297c9b9d999ea877683d116e3753710de0edf20dbe3a36cce2bea064736f6c634300060c00334f776e61626c653a206e6577206f776e657220697320746865207a65726f2061646472657373",
  "immutableReferences": {},
  "source": "pragma solidity >=0.4.23 <0.7.0;\n\nimport \"openzeppelin-solidity/contracts/access/Ownable.sol\";\nimport \"openzeppelin-solidity/contracts/math/SafeMath.sol\";\n\ncontract Fundraiser is Ownable {\n    using SafeMath for uint256;\n\n    uint256 public totalDonations;\n    uint256 public donationsCount;\n\n    struct Donation {\n        uint256 value;\n        uint256 date;\n    }\n    mapping(address => Donation[]) private _donations;\n\n    event DonationReceived(address indexed donor, uint256 value);\n    event Withdraw(uint256 amount);\n\n    string public name;\n    string public url;\n    string public imageURL;\n    string public description;\n\n    address payable public beneficiary;\n\n    constructor(\n        string memory _name,\n        string memory _url,\n        string memory _imageURL,\n        string memory _description,\n        address payable _beneficiary,\n        address _owner\n    ) public {\n        name = _name;\n        url = _url;\n        imageURL = _imageURL;\n        description = _description;\n        beneficiary = _beneficiary;\n        transferOwnership(_owner);\n    }\n\n    function setBeneficiary(address payable _beneficiary) public onlyOwner {\n        beneficiary = _beneficiary;\n    }\n\n    function myDonationsCount() public view returns(uint256) {\n        return _donations[msg.sender].length;\n    }\n\n    function donate() public payable {\n        Donation memory donation = Donation({\n            value: msg.value,\n            date: block.timestamp\n        });\n        _donations[msg.sender].push(donation);\n        totalDonations = totalDonations.add(msg.value);\n        donationsCount++;\n\n        emit DonationReceived(msg.sender, msg.value);\n    }\n\n    function myDonations() public view returns(\n        uint256[] memory values,\n        uint256[] memory dates\n    ) {\n        uint256 count = myDonationsCount();\n        values = new uint256[](count);\n        dates = new uint256[](count);\n\n        for (uint256 i = 0; i < count; i++) {\n            Donation storage donation = _donations[msg.sender][i];\n            values[i] = donation.value;\n            dates[i] = donation.date;\n        }\n\n        return (values, dates);\n    }\n\n    function withdraw() public onlyOwner {\n        uint256 balance = address(this).balance;\n        beneficiary.transfer(balance);\n        emit Withdraw(balance);\n    }\n}",
  "sourcePath": "/Users/admin/ethereum/fundraiser/contracts/Fundraiser.sol",
  "compiler": {
    "name": "solc",
    "version": "0.6.12+commit.27d51765.Emscripten.clang"
  },
  "schemaVersion": "3.4.0",
  "updatedAt": "2021-04-26T15:52:54.260Z",
  "devdoc": {
    "kind": "dev",
    "methods": {
      "owner()": {
        "details": "Returns the address of the current owner."
      },
      "renounceOwnership()": {
        "details": "Leaves the contract without owner. It will not be possible to call `onlyOwner` functions anymore. Can only be called by the current owner. NOTE: Renouncing ownership will leave the contract without an owner, thereby removing any functionality that is only available to the owner."
      },
      "transferOwnership(address)": {
        "details": "Transfers ownership of the contract to a new account (`newOwner`). Can only be called by the current owner."
      }
    },
    "version": 1
  },
  "userdoc": {
    "kind": "user",
    "methods": {},
    "version": 1
  }
}